{
  "_format": "hh-sol-artifact-1",
  "contractName": "RefugeeFinance",
  "sourceName": "contracts/RefugeeFinance.sol",
  "abi": [
    {
      "inputs": [
        {
          "internalType": "address",
          "name": "initialOwner",
          "type": "address"
        }
      ],
      "stateMutability": "nonpayable",
      "type": "constructor"
    },
    {
      "inputs": [
        {
          "internalType": "address",
          "name": "sender",
          "type": "address"
        },
        {
          "internalType": "uint256",
          "name": "tokenId",
          "type": "uint256"
        },
        {
          "internalType": "address",
          "name": "owner",
          "type": "address"
        }
      ],
      "name": "ERC721IncorrectOwner",
      "type": "error"
    },
    {
      "inputs": [
        {
          "internalType": "address",
          "name": "operator",
          "type": "address"
        },
        {
          "internalType": "uint256",
          "name": "tokenId",
          "type": "uint256"
        }
      ],
      "name": "ERC721InsufficientApproval",
      "type": "error"
    },
    {
      "inputs": [
        {
          "internalType": "address",
          "name": "approver",
          "type": "address"
        }
      ],
      "name": "ERC721InvalidApprover",
      "type": "error"
    },
    {
      "inputs": [
        {
          "internalType": "address",
          "name": "operator",
          "type": "address"
        }
      ],
      "name": "ERC721InvalidOperator",
      "type": "error"
    },
    {
      "inputs": [
        {
          "internalType": "address",
          "name": "owner",
          "type": "address"
        }
      ],
      "name": "ERC721InvalidOwner",
      "type": "error"
    },
    {
      "inputs": [
        {
          "internalType": "address",
          "name": "receiver",
          "type": "address"
        }
      ],
      "name": "ERC721InvalidReceiver",
      "type": "error"
    },
    {
      "inputs": [
        {
          "internalType": "address",
          "name": "sender",
          "type": "address"
        }
      ],
      "name": "ERC721InvalidSender",
      "type": "error"
    },
    {
      "inputs": [
        {
          "internalType": "uint256",
          "name": "tokenId",
          "type": "uint256"
        }
      ],
      "name": "ERC721NonexistentToken",
      "type": "error"
    },
    {
      "inputs": [
        {
          "internalType": "address",
          "name": "owner",
          "type": "address"
        }
      ],
      "name": "OwnableInvalidOwner",
      "type": "error"
    },
    {
      "inputs": [
        {
          "internalType": "address",
          "name": "account",
          "type": "address"
        }
      ],
      "name": "OwnableUnauthorizedAccount",
      "type": "error"
    },
    {
      "anonymous": false,
      "inputs": [
        {
          "indexed": true,
          "internalType": "address",
          "name": "owner",
          "type": "address"
        },
        {
          "indexed": true,
          "internalType": "address",
          "name": "approved",
          "type": "address"
        },
        {
          "indexed": true,
          "internalType": "uint256",
          "name": "tokenId",
          "type": "uint256"
        }
      ],
      "name": "Approval",
      "type": "event"
    },
    {
      "anonymous": false,
      "inputs": [
        {
          "indexed": true,
          "internalType": "address",
          "name": "owner",
          "type": "address"
        },
        {
          "indexed": true,
          "internalType": "address",
          "name": "operator",
          "type": "address"
        },
        {
          "indexed": false,
          "internalType": "bool",
          "name": "approved",
          "type": "bool"
        }
      ],
      "name": "ApprovalForAll",
      "type": "event"
    },
    {
      "anonymous": false,
      "inputs": [
        {
          "indexed": false,
          "internalType": "uint256",
          "name": "_fromTokenId",
          "type": "uint256"
        },
        {
          "indexed": false,
          "internalType": "uint256",
          "name": "_toTokenId",
          "type": "uint256"
        }
      ],
      "name": "BatchMetadataUpdate",
      "type": "event"
    },
    {
      "anonymous": false,
      "inputs": [
        {
          "indexed": true,
          "internalType": "address",
          "name": "user",
          "type": "address"
        },
        {
          "indexed": false,
          "internalType": "int256",
          "name": "newScore",
          "type": "int256"
        }
      ],
      "name": "CreditUpdated",
      "type": "event"
    },
    {
      "anonymous": false,
      "inputs": [
        {
          "indexed": true,
          "internalType": "address",
          "name": "borrower",
          "type": "address"
        },
        {
          "indexed": false,
          "internalType": "uint256",
          "name": "amount",
          "type": "uint256"
        }
      ],
      "name": "LoanIssued",
      "type": "event"
    },
    {
      "anonymous": false,
      "inputs": [
        {
          "indexed": true,
          "internalType": "address",
          "name": "borrower",
          "type": "address"
        },
        {
          "indexed": false,
          "internalType": "uint256",
          "name": "amount",
          "type": "uint256"
        }
      ],
      "name": "LoanRepaid",
      "type": "event"
    },
    {
      "anonymous": false,
      "inputs": [
        {
          "indexed": false,
          "internalType": "uint256",
          "name": "_tokenId",
          "type": "uint256"
        }
      ],
      "name": "MetadataUpdate",
      "type": "event"
    },
    {
      "anonymous": false,
      "inputs": [
        {
          "indexed": true,
          "internalType": "address",
          "name": "previousOwner",
          "type": "address"
        },
        {
          "indexed": true,
          "internalType": "address",
          "name": "newOwner",
          "type": "address"
        }
      ],
      "name": "OwnershipTransferred",
      "type": "event"
    },
    {
      "anonymous": false,
      "inputs": [
        {
          "indexed": true,
          "internalType": "address",
          "name": "from",
          "type": "address"
        },
        {
          "indexed": true,
          "internalType": "address",
          "name": "to",
          "type": "address"
        },
        {
          "indexed": true,
          "internalType": "uint256",
          "name": "tokenId",
          "type": "uint256"
        }
      ],
      "name": "Transfer",
      "type": "event"
    },
    {
      "inputs": [],
      "name": "MAX_LOAN",
      "outputs": [
        {
          "internalType": "uint256",
          "name": "",
          "type": "uint256"
        }
      ],
      "stateMutability": "view",
      "type": "function"
    },
    {
      "inputs": [
        {
          "internalType": "address",
          "name": "to",
          "type": "address"
        },
        {
          "internalType": "uint256",
          "name": "tokenId",
          "type": "uint256"
        }
      ],
      "name": "approve",
      "outputs": [],
      "stateMutability": "nonpayable",
      "type": "function"
    },
    {
      "inputs": [
        {
          "internalType": "address",
          "name": "owner",
          "type": "address"
        }
      ],
      "name": "balanceOf",
      "outputs": [
        {
          "internalType": "uint256",
          "name": "",
          "type": "uint256"
        }
      ],
      "stateMutability": "view",
      "type": "function"
    },
    {
      "inputs": [
        {
          "internalType": "address",
          "name": "",
          "type": "address"
        }
      ],
      "name": "creditScore",
      "outputs": [
        {
          "internalType": "int256",
          "name": "",
          "type": "int256"
        }
      ],
      "stateMutability": "view",
      "type": "function"
    },
    {
      "inputs": [
        {
          "internalType": "uint256",
          "name": "tokenId",
          "type": "uint256"
        }
      ],
      "name": "getApproved",
      "outputs": [
        {
          "internalType": "address",
          "name": "",
          "type": "address"
        }
      ],
      "stateMutability": "view",
      "type": "function"
    },
    {
      "inputs": [
        {
          "internalType": "address",
          "name": "user",
          "type": "address"
        }
      ],
      "name": "getUserDocument",
      "outputs": [
        {
          "internalType": "string",
          "name": "",
          "type": "string"
        }
      ],
      "stateMutability": "view",
      "type": "function"
    },
    {
      "inputs": [
        {
          "internalType": "address",
          "name": "owner",
          "type": "address"
        },
        {
          "internalType": "address",
          "name": "operator",
          "type": "address"
        }
      ],
      "name": "isApprovedForAll",
      "outputs": [
        {
          "internalType": "bool",
          "name": "",
          "type": "bool"
        }
      ],
      "stateMutability": "view",
      "type": "function"
    },
    {
      "inputs": [
        {
          "internalType": "address",
          "name": "",
          "type": "address"
        },
        {
          "internalType": "uint256",
          "name": "",
          "type": "uint256"
        }
      ],
      "name": "loans",
      "outputs": [
        {
          "internalType": "uint256",
          "name": "amount",
          "type": "uint256"
        },
        {
          "internalType": "uint256",
          "name": "dueDate",
          "type": "uint256"
        },
        {
          "internalType": "uint256",
          "name": "amountRepaid",
          "type": "uint256"
        },
        {
          "internalType": "bool",
          "name": "active",
          "type": "bool"
        }
      ],
      "stateMutability": "view",
      "type": "function"
    },
    {
      "inputs": [],
      "name": "name",
      "outputs": [
        {
          "internalType": "string",
          "name": "",
          "type": "string"
        }
      ],
      "stateMutability": "view",
      "type": "function"
    },
    {
      "inputs": [],
      "name": "owner",
      "outputs": [
        {
          "internalType": "address",
          "name": "",
          "type": "address"
        }
      ],
      "stateMutability": "view",
      "type": "function"
    },
    {
      "inputs": [
        {
          "internalType": "uint256",
          "name": "tokenId",
          "type": "uint256"
        }
      ],
      "name": "ownerOf",
      "outputs": [
        {
          "internalType": "address",
          "name": "",
          "type": "address"
        }
      ],
      "stateMutability": "view",
      "type": "function"
    },
    {
      "inputs": [
        {
          "internalType": "address",
          "name": "to",
          "type": "address"
        },
        {
          "internalType": "string",
          "name": "ipfsHash",
          "type": "string"
        }
      ],
      "name": "registerRefugee",
      "outputs": [],
      "stateMutability": "nonpayable",
      "type": "function"
    },
    {
      "inputs": [],
      "name": "renounceOwnership",
      "outputs": [],
      "stateMutability": "nonpayable",
      "type": "function"
    },
    {
      "inputs": [],
      "name": "repayLoan",
      "outputs": [],
      "stateMutability": "payable",
      "type": "function"
    },
    {
      "inputs": [
        {
          "internalType": "uint256",
          "name": "amount",
          "type": "uint256"
        }
      ],
      "name": "requestLoan",
      "outputs": [],
      "stateMutability": "nonpayable",
      "type": "function"
    },
    {
      "inputs": [
        {
          "internalType": "address",
          "name": "from",
          "type": "address"
        },
        {
          "internalType": "address",
          "name": "to",
          "type": "address"
        },
        {
          "internalType": "uint256",
          "name": "tokenId",
          "type": "uint256"
        }
      ],
      "name": "safeTransferFrom",
      "outputs": [],
      "stateMutability": "nonpayable",
      "type": "function"
    },
    {
      "inputs": [
        {
          "internalType": "address",
          "name": "from",
          "type": "address"
        },
        {
          "internalType": "address",
          "name": "to",
          "type": "address"
        },
        {
          "internalType": "uint256",
          "name": "tokenId",
          "type": "uint256"
        },
        {
          "internalType": "bytes",
          "name": "data",
          "type": "bytes"
        }
      ],
      "name": "safeTransferFrom",
      "outputs": [],
      "stateMutability": "nonpayable",
      "type": "function"
    },
    {
      "inputs": [
        {
          "internalType": "address",
          "name": "operator",
          "type": "address"
        },
        {
          "internalType": "bool",
          "name": "approved",
          "type": "bool"
        }
      ],
      "name": "setApprovalForAll",
      "outputs": [],
      "stateMutability": "nonpayable",
      "type": "function"
    },
    {
      "inputs": [
        {
          "internalType": "bytes4",
          "name": "interfaceId",
          "type": "bytes4"
        }
      ],
      "name": "supportsInterface",
      "outputs": [
        {
          "internalType": "bool",
          "name": "",
          "type": "bool"
        }
      ],
      "stateMutability": "view",
      "type": "function"
    },
    {
      "inputs": [],
      "name": "symbol",
      "outputs": [
        {
          "internalType": "string",
          "name": "",
          "type": "string"
        }
      ],
      "stateMutability": "view",
      "type": "function"
    },
    {
      "inputs": [
        {
          "internalType": "uint256",
          "name": "tokenId",
          "type": "uint256"
        }
      ],
      "name": "tokenURI",
      "outputs": [
        {
          "internalType": "string",
          "name": "",
          "type": "string"
        }
      ],
      "stateMutability": "view",
      "type": "function"
    },
    {
      "inputs": [
        {
          "internalType": "address",
          "name": "from",
          "type": "address"
        },
        {
          "internalType": "address",
          "name": "to",
          "type": "address"
        },
        {
          "internalType": "uint256",
          "name": "tokenId",
          "type": "uint256"
        }
      ],
      "name": "transferFrom",
      "outputs": [],
      "stateMutability": "nonpayable",
      "type": "function"
    },
    {
      "inputs": [
        {
          "internalType": "address",
          "name": "newOwner",
          "type": "address"
        }
      ],
      "name": "transferOwnership",
      "outputs": [],
      "stateMutability": "nonpayable",
      "type": "function"
    },
    {
      "inputs": [
        {
          "internalType": "address",
          "name": "",
          "type": "address"
        }
      ],
      "name": "userToTokenId",
      "outputs": [
        {
          "internalType": "uint256",
          "name": "",
          "type": "uint256"
        }
      ],
      "stateMutability": "view",
      "type": "function"
    },
    {
      "inputs": [
        {
          "internalType": "uint256",
          "name": "",
          "type": "uint256"
        }
      ],
      "name": "verifiedDocuments",
      "outputs": [
        {
          "internalType": "bool",
          "name": "",
          "type": "bool"
        }
      ],
      "stateMutability": "view",
      "type": "function"
    },
    {
      "inputs": [
        {
          "internalType": "address",
          "name": "user",
          "type": "address"
        }
      ],
      "name": "verifyDocuments",
      "outputs": [],
      "stateMutability": "nonpayable",
      "type": "function"
    },
    {
      "stateMutability": "payable",
      "type": "receive"
    }
  ],
  "bytecode": "0x608060405234801561001057600080fd5b50604051613d84380380613d8483398181016040528101906100329190610272565b806040518060400160405280600981526020017f52656675676565494400000000000000000000000000000000000000000000008152506040518060400160405280600381526020017f524944000000000000000000000000000000000000000000000000000000000081525081600090816100ae91906104ef565b5080600190816100be91906104ef565b505050600073ffffffffffffffffffffffffffffffffffffffff168173ffffffffffffffffffffffffffffffffffffffff16036101335760006040517f1e4fbdf700000000000000000000000000000000000000000000000000000000815260040161012a91906105d0565b60405180910390fd5b6101428161014960201b60201c565b50506105eb565b6000600760009054906101000a900473ffffffffffffffffffffffffffffffffffffffff16905081600760006101000a81548173ffffffffffffffffffffffffffffffffffffffff021916908373ffffffffffffffffffffffffffffffffffffffff1602179055508173ffffffffffffffffffffffffffffffffffffffff168173ffffffffffffffffffffffffffffffffffffffff167f8be0079c531659141344cd1fd0a4f28419497f9722a3daafe3b4186f6b6457e060405160405180910390a35050565b600080fd5b600073ffffffffffffffffffffffffffffffffffffffff82169050919050565b600061023f82610214565b9050919050565b61024f81610234565b811461025a57600080fd5b50565b60008151905061026c81610246565b92915050565b6000602082840312156102885761028761020f565b5b60006102968482850161025d565b91505092915050565b600081519050919050565b7f4e487b7100000000000000000000000000000000000000000000000000000000600052604160045260246000fd5b7f4e487b7100000000000000000000000000000000000000000000000000000000600052602260045260246000fd5b6000600282049050600182168061032057607f821691505b602082108103610333576103326102d9565b5b50919050565b60008190508160005260206000209050919050565b60006020601f8301049050919050565b600082821b905092915050565b60006008830261039b7fffffffffffffffffffffffffffffffffffffffffffffffffffffffffffffffff8261035e565b6103a5868361035e565b95508019841693508086168417925050509392505050565b6000819050919050565b6000819050919050565b60006103ec6103e76103e2846103bd565b6103c7565b6103bd565b9050919050565b6000819050919050565b610406836103d1565b61041a610412826103f3565b84845461036b565b825550505050565b600090565b61042f610422565b61043a8184846103fd565b505050565b5b8181101561045e57610453600082610427565b600181019050610440565b5050565b601f8211156104a35761047481610339565b61047d8461034e565b8101602085101561048c578190505b6104a06104988561034e565b83018261043f565b50505b505050565b600082821c905092915050565b60006104c6600019846008026104a8565b1980831691505092915050565b60006104df83836104b5565b9150826002028217905092915050565b6104f88261029f565b67ffffffffffffffff811115610511576105106102aa565b5b61051b8254610308565b610526828285610462565b600060209050601f8311600181146105595760008415610547578287015190505b61055185826104d3565b8655506105b9565b601f19841661056786610339565b60005b8281101561058f5784890151825560018201915060208501945060208101905061056a565b868310156105ac57848901516105a8601f8916826104b5565b8355505b6001600288020188555050505b505050505050565b6105ca81610234565b82525050565b60006020820190506105e560008301846105c1565b92915050565b61378a806105fa6000396000f3fe6080604052600436106101855760003560e01c80638b3160e6116100d1578063af24b07b1161008a578063e985e9c511610064578063e985e9c5146105c4578063f2fde38b14610601578063f7e590ee1461062a578063f966ade7146106675761018c565b8063af24b07b14610521578063b88d4fde1461055e578063c87b56dd146105875761018c565b80638b3160e6146104105780638d5d3429146104395780638da5cb5b1461046257806395d89b411461048d57806398c61c37146104b8578063a22cb465146104f85761018c565b806323b872dd1161013e5780636352211e116101185780636352211e1461034257806370a082311461037f578063715018a6146103bc57806372e24d59146103d35761018c565b806323b872dd146102c557806342842e0e146102ee57806361755432146103175761018c565b806301ffc9a71461019157806306fdde03146101ce578063081812fc146101f9578063095ea7b3146102365780630b73fd2e1461025f5780630c295f121461029c5761018c565b3661018c57005b600080fd5b34801561019d57600080fd5b506101b860048036038101906101b391906126e9565b610671565b6040516101c59190612731565b60405180910390f35b3480156101da57600080fd5b506101e3610683565b6040516101f091906127dc565b60405180910390f35b34801561020557600080fd5b50610220600480360381019061021b9190612834565b610715565b60405161022d91906128a2565b60405180910390f35b34801561024257600080fd5b5061025d600480360381019061025891906128e9565b610731565b005b34801561026b57600080fd5b5061028660048036038101906102819190612834565b610747565b6040516102939190612731565b60405180910390f35b3480156102a857600080fd5b506102c360048036038101906102be9190612a5e565b610767565b005b3480156102d157600080fd5b506102ec60048036038101906102e79190612aba565b610806565b005b3480156102fa57600080fd5b5061031560048036038101906103109190612aba565b610908565b005b34801561032357600080fd5b5061032c610928565b6040516103399190612b1c565b60405180910390f35b34801561034e57600080fd5b5061036960048036038101906103649190612834565b610934565b60405161037691906128a2565b60405180910390f35b34801561038b57600080fd5b506103a660048036038101906103a19190612b37565b610946565b6040516103b39190612b1c565b60405180910390f35b3480156103c857600080fd5b506103d1610a00565b005b3480156103df57600080fd5b506103fa60048036038101906103f59190612b37565b610a14565b60405161040791906127dc565b60405180910390f35b34801561041c57600080fd5b5061043760048036038101906104329190612b37565b610a65565b005b34801561044557600080fd5b50610460600480360381019061045b9190612834565b610ae1565b005b34801561046e57600080fd5b50610477610e23565b60405161048491906128a2565b60405180910390f35b34801561049957600080fd5b506104a2610e4d565b6040516104af91906127dc565b60405180910390f35b3480156104c457600080fd5b506104df60048036038101906104da91906128e9565b610edf565b6040516104ef9493929190612b64565b60405180910390f35b34801561050457600080fd5b5061051f600480360381019061051a9190612bd5565b610f39565b005b34801561052d57600080fd5b5061054860048036038101906105439190612b37565b610f4f565b6040516105559190612b1c565b60405180910390f35b34801561056a57600080fd5b5061058560048036038101906105809190612cb6565b610f67565b005b34801561059357600080fd5b506105ae60048036038101906105a99190612834565b610f8c565b6040516105bb91906127dc565b60405180910390f35b3480156105d057600080fd5b506105eb60048036038101906105e69190612d39565b610f9e565b6040516105f89190612731565b60405180910390f35b34801561060d57600080fd5b5061062860048036038101906106239190612b37565b611032565b005b34801561063657600080fd5b50610651600480360381019061064c9190612b37565b6110b8565b60405161065e9190612d92565b60405180910390f35b61066f6110d0565b005b600061067c82611498565b9050919050565b60606000805461069290612ddc565b80601f01602080910402602001604051908101604052809291908181526020018280546106be90612ddc565b801561070b5780601f106106e05761010080835404028352916020019161070b565b820191906000526020600020905b8154815290600101906020018083116106ee57829003601f168201915b5050505050905090565b6000610720826114f9565b5061072a82611581565b9050919050565b610743828261073e6115be565b6115c6565b5050565b60096020528060005260406000206000915054906101000a900460ff1681565b61076f6115d8565b60006008600081548092919061078490612e3c565b919050559050610794838261165f565b6107bd81836040516020016107a99190612f0c565b60405160208183030381529060405261167d565b80600a60008573ffffffffffffffffffffffffffffffffffffffff1673ffffffffffffffffffffffffffffffffffffffff16815260200190815260200160002081905550505050565b600073ffffffffffffffffffffffffffffffffffffffff168273ffffffffffffffffffffffffffffffffffffffff16036108785760006040517f64a0ae9200000000000000000000000000000000000000000000000000000000815260040161086f91906128a2565b60405180910390fd5b600061088c83836108876115be565b6116d9565b90508373ffffffffffffffffffffffffffffffffffffffff168173ffffffffffffffffffffffffffffffffffffffff1614610902578382826040517f64283d7b0000000000000000000000000000000000000000000000000000000081526004016108f993929190612f2e565b60405180910390fd5b50505050565b61092383838360405180602001604052806000815250610f67565b505050565b6706f05b59d3b2000081565b600061093f826114f9565b9050919050565b60008073ffffffffffffffffffffffffffffffffffffffff168273ffffffffffffffffffffffffffffffffffffffff16036109b95760006040517f89c62b640000000000000000000000000000000000000000000000000000000081526004016109b091906128a2565b60405180910390fd5b600360008373ffffffffffffffffffffffffffffffffffffffff1673ffffffffffffffffffffffffffffffffffffffff168152602001908152602001600020549050919050565b610a086115d8565b610a1260006118f3565b565b6060610a5e600a60008473ffffffffffffffffffffffffffffffffffffffff1673ffffffffffffffffffffffffffffffffffffffff16815260200190815260200160002054610f8c565b9050919050565b610a6d6115d8565b6000600a60008373ffffffffffffffffffffffffffffffffffffffff1673ffffffffffffffffffffffffffffffffffffffff16815260200190815260200160002054905060016009600083815260200190815260200160002060006101000a81548160ff0219169083151502179055505050565b60096000600a60003373ffffffffffffffffffffffffffffffffffffffff1673ffffffffffffffffffffffffffffffffffffffff16815260200190815260200160002054815260200190815260200160002060009054906101000a900460ff16610b80576040517f08c379a0000000000000000000000000000000000000000000000000000000008152600401610b7790612fb1565b60405180910390fd5b6706f05b59d3b20000811115610bcb576040517f08c379a0000000000000000000000000000000000000000000000000000000008152600401610bc29061301d565b60405180910390fd5b80471015610c0e576040517f08c379a0000000000000000000000000000000000000000000000000000000008152600401610c0590613089565b60405180910390fd5b7fffffffffffffffffffffffffffffffffffffffffffffffffffffffffffffffce600b60003373ffffffffffffffffffffffffffffffffffffffff1673ffffffffffffffffffffffffffffffffffffffff168152602001908152602001600020541215610cb0576040517f08c379a0000000000000000000000000000000000000000000000000000000008152600401610ca7906130f5565b60405180910390fd5b600c60003373ffffffffffffffffffffffffffffffffffffffff1673ffffffffffffffffffffffffffffffffffffffff168152602001908152602001600020604051806080016040528083815260200162278d0042610d0f9190613115565b81526020016000815260200160011515815250908060018154018082558091505060019003906000526020600020906004020160009091909190915060008201518160000155602082015181600101556040820151816002015560608201518160030160006101000a81548160ff02191690831515021790555050503373ffffffffffffffffffffffffffffffffffffffff166108fc829081150290604051600060405180830381858888f19350505050158015610dd1573d6000803e3d6000fd5b503373ffffffffffffffffffffffffffffffffffffffff167f7a954f5289898ac88c79469be62462b769f41c4f171a4f4591ef5a62b6fbf74f82604051610e189190612b1c565b60405180910390a250565b6000600760009054906101000a900473ffffffffffffffffffffffffffffffffffffffff16905090565b606060018054610e5c90612ddc565b80601f0160208091040260200160405190810160405280929190818152602001828054610e8890612ddc565b8015610ed55780601f10610eaa57610100808354040283529160200191610ed5565b820191906000526020600020905b815481529060010190602001808311610eb857829003601f168201915b5050505050905090565b600c6020528160005260406000208181548110610efb57600080fd5b9060005260206000209060040201600091509150508060000154908060010154908060020154908060030160009054906101000a900460ff16905084565b610f4b610f446115be565b83836119b9565b5050565b600a6020528060005260406000206000915090505481565b610f72848484610806565b610f86610f7d6115be565b85858585611b28565b50505050565b6060610f9782611cd9565b9050919050565b6000600560008473ffffffffffffffffffffffffffffffffffffffff1673ffffffffffffffffffffffffffffffffffffffff16815260200190815260200160002060008373ffffffffffffffffffffffffffffffffffffffff1673ffffffffffffffffffffffffffffffffffffffff16815260200190815260200160002060009054906101000a900460ff16905092915050565b61103a6115d8565b600073ffffffffffffffffffffffffffffffffffffffff168173ffffffffffffffffffffffffffffffffffffffff16036110ac5760006040517f1e4fbdf70000000000000000000000000000000000000000000000000000000081526004016110a391906128a2565b60405180910390fd5b6110b5816118f3565b50565b600b6020528060005260406000206000915090505481565b6000600c60003373ffffffffffffffffffffffffffffffffffffffff1673ffffffffffffffffffffffffffffffffffffffff1681526020019081526020016000208054905011611155576040517f08c379a000000000000000000000000000000000000000000000000000000000815260040161114c90613195565b60405180910390fd5b6000600c60003373ffffffffffffffffffffffffffffffffffffffff1673ffffffffffffffffffffffffffffffffffffffff1681526020019081526020016000206001600c60003373ffffffffffffffffffffffffffffffffffffffff1673ffffffffffffffffffffffffffffffffffffffff168152602001908152602001600020805490506111e591906131b5565b815481106111f6576111f56131e9565b5b906000526020600020906004020190508060030160009054906101000a900460ff16611257576040517f08c379a000000000000000000000000000000000000000000000000000000000815260040161124e90613264565b60405180910390fd5b60008160020154826000015461126d91906131b5565b9050803411156112b2576040517f08c379a00000000000000000000000000000000000000000000000000000000081526004016112a9906132d0565b60405180910390fd5b348260020160008282546112c69190613115565b9250508190555081600001548260020154106114465760008260030160006101000a81548160ff02191690831515021790555081600101544211611360576028600b60003373ffffffffffffffffffffffffffffffffffffffff1673ffffffffffffffffffffffffffffffffffffffff168152602001908152602001600020600082825461135491906132f0565b925050819055506113b8565b6032600b60003373ffffffffffffffffffffffffffffffffffffffff1673ffffffffffffffffffffffffffffffffffffffff16815260200190815260200160002060008282546113b09190613334565b925050819055505b3373ffffffffffffffffffffffffffffffffffffffff167f767e29d7921be197e56356c0f65113749c4b2acd8dcfe3cab54dfdb79e7e4cb2600b60003373ffffffffffffffffffffffffffffffffffffffff1673ffffffffffffffffffffffffffffffffffffffff1681526020019081526020016000205460405161143d9190612d92565b60405180910390a25b3373ffffffffffffffffffffffffffffffffffffffff167fc200a1f31dd659e356e0f112c82558e25f49f7b0f84438691cd96f5cb35588233460405161148c9190612b1c565b60405180910390a25050565b6000634906490660e01b7bffffffffffffffffffffffffffffffffffffffffffffffffffffffff1916827bffffffffffffffffffffffffffffffffffffffffffffffffffffffff191614806114f257506114f182611dec565b5b9050919050565b60008061150583611ece565b9050600073ffffffffffffffffffffffffffffffffffffffff168173ffffffffffffffffffffffffffffffffffffffff160361157857826040517f7e27328900000000000000000000000000000000000000000000000000000000815260040161156f9190612b1c565b60405180910390fd5b80915050919050565b60006004600083815260200190815260200160002060009054906101000a900473ffffffffffffffffffffffffffffffffffffffff169050919050565b600033905090565b6115d38383836001611f0b565b505050565b6115e06115be565b73ffffffffffffffffffffffffffffffffffffffff166115fe610e23565b73ffffffffffffffffffffffffffffffffffffffff161461165d576116216115be565b6040517f118cdaa700000000000000000000000000000000000000000000000000000000815260040161165491906128a2565b60405180910390fd5b565b6116798282604051806020016040528060008152506120d0565b5050565b8060066000848152602001908152602001600020908161169d9190613523565b507ff8e1a15aba9398e019f0b49df1a4fde98ee17ae345cb5f6b5e2c27f5033e8ce7826040516116cd9190612b1c565b60405180910390a15050565b6000806116e584611ece565b9050600073ffffffffffffffffffffffffffffffffffffffff168373ffffffffffffffffffffffffffffffffffffffff1614611727576117268184866120f4565b5b600073ffffffffffffffffffffffffffffffffffffffff168173ffffffffffffffffffffffffffffffffffffffff16146117b857611769600085600080611f0b565b6001600360008373ffffffffffffffffffffffffffffffffffffffff1673ffffffffffffffffffffffffffffffffffffffff168152602001908152602001600020600082825403925050819055505b600073ffffffffffffffffffffffffffffffffffffffff168573ffffffffffffffffffffffffffffffffffffffff161461183b576001600360008773ffffffffffffffffffffffffffffffffffffffff1673ffffffffffffffffffffffffffffffffffffffff168152602001908152602001600020600082825401925050819055505b846002600086815260200190815260200160002060006101000a81548173ffffffffffffffffffffffffffffffffffffffff021916908373ffffffffffffffffffffffffffffffffffffffff160217905550838573ffffffffffffffffffffffffffffffffffffffff168273ffffffffffffffffffffffffffffffffffffffff167fddf252ad1be2c89b69c2b068fc378daa952ba7f163c4a11628f55a4df523b3ef60405160405180910390a4809150509392505050565b6000600760009054906101000a900473ffffffffffffffffffffffffffffffffffffffff16905081600760006101000a81548173ffffffffffffffffffffffffffffffffffffffff021916908373ffffffffffffffffffffffffffffffffffffffff1602179055508173ffffffffffffffffffffffffffffffffffffffff168173ffffffffffffffffffffffffffffffffffffffff167f8be0079c531659141344cd1fd0a4f28419497f9722a3daafe3b4186f6b6457e060405160405180910390a35050565b600073ffffffffffffffffffffffffffffffffffffffff168273ffffffffffffffffffffffffffffffffffffffff1603611a2a57816040517f5b08ba18000000000000000000000000000000000000000000000000000000008152600401611a2191906128a2565b60405180910390fd5b80600560008573ffffffffffffffffffffffffffffffffffffffff1673ffffffffffffffffffffffffffffffffffffffff16815260200190815260200160002060008473ffffffffffffffffffffffffffffffffffffffff1673ffffffffffffffffffffffffffffffffffffffff16815260200190815260200160002060006101000a81548160ff0219169083151502179055508173ffffffffffffffffffffffffffffffffffffffff168373ffffffffffffffffffffffffffffffffffffffff167f17307eab39ab6107e8899845ad3d59bd9653f200f220920489ca2b5937696c3183604051611b1b9190612731565b60405180910390a3505050565b60008373ffffffffffffffffffffffffffffffffffffffff163b1115611cd2578273ffffffffffffffffffffffffffffffffffffffff1663150b7a02868685856040518563ffffffff1660e01b8152600401611b87949392919061364a565b6020604051808303816000875af1925050508015611bc357506040513d601f19601f82011682018060405250810190611bc091906136ab565b60015b611c47573d8060008114611bf3576040519150601f19603f3d011682016040523d82523d6000602084013e611bf8565b606091505b506000815103611c3f57836040517f64a0ae92000000000000000000000000000000000000000000000000000000008152600401611c3691906128a2565b60405180910390fd5b805181602001fd5b63150b7a0260e01b7bffffffffffffffffffffffffffffffffffffffffffffffffffffffff1916817bffffffffffffffffffffffffffffffffffffffffffffffffffffffff191614611cd057836040517f64a0ae92000000000000000000000000000000000000000000000000000000008152600401611cc791906128a2565b60405180910390fd5b505b5050505050565b6060611ce4826114f9565b506000600660008481526020019081526020016000208054611d0590612ddc565b80601f0160208091040260200160405190810160405280929190818152602001828054611d3190612ddc565b8015611d7e5780601f10611d5357610100808354040283529160200191611d7e565b820191906000526020600020905b815481529060010190602001808311611d6157829003601f168201915b505050505090506000611d8f6121b8565b90506000815103611da4578192505050611de7565b600082511115611dd9578082604051602001611dc19291906136d8565b60405160208183030381529060405292505050611de7565b611de2846121cf565b925050505b919050565b60007f80ac58cd000000000000000000000000000000000000000000000000000000007bffffffffffffffffffffffffffffffffffffffffffffffffffffffff1916827bffffffffffffffffffffffffffffffffffffffffffffffffffffffff19161480611eb757507f5b5e139f000000000000000000000000000000000000000000000000000000007bffffffffffffffffffffffffffffffffffffffffffffffffffffffff1916827bffffffffffffffffffffffffffffffffffffffffffffffffffffffff1916145b80611ec75750611ec682612238565b5b9050919050565b60006002600083815260200190815260200160002060009054906101000a900473ffffffffffffffffffffffffffffffffffffffff169050919050565b8080611f445750600073ffffffffffffffffffffffffffffffffffffffff168273ffffffffffffffffffffffffffffffffffffffff1614155b15612078576000611f54846114f9565b9050600073ffffffffffffffffffffffffffffffffffffffff168373ffffffffffffffffffffffffffffffffffffffff1614158015611fbf57508273ffffffffffffffffffffffffffffffffffffffff168173ffffffffffffffffffffffffffffffffffffffff1614155b8015611fd25750611fd08184610f9e565b155b1561201457826040517fa9fbf51f00000000000000000000000000000000000000000000000000000000815260040161200b91906128a2565b60405180910390fd5b811561207657838573ffffffffffffffffffffffffffffffffffffffff168273ffffffffffffffffffffffffffffffffffffffff167f8c5be1e5ebec7d5bd14f71427d1e84f3dd0314c0f7b2291e5b200ac8c7c3b92560405160405180910390a45b505b836004600085815260200190815260200160002060006101000a81548173ffffffffffffffffffffffffffffffffffffffff021916908373ffffffffffffffffffffffffffffffffffffffff16021790555050505050565b6120da83836122a2565b6120ef6120e56115be565b6000858585611b28565b505050565b6120ff83838361239b565b6121b357600073ffffffffffffffffffffffffffffffffffffffff168373ffffffffffffffffffffffffffffffffffffffff160361217457806040517f7e27328900000000000000000000000000000000000000000000000000000000815260040161216b9190612b1c565b60405180910390fd5b81816040517f177e802f0000000000000000000000000000000000000000000000000000000081526004016121aa9291906136fc565b60405180910390fd5b505050565b606060405180602001604052806000815250905090565b60606121da826114f9565b5060006121e56121b8565b905060008151116122055760405180602001604052806000815250612230565b8061220f8461245c565b6040516020016122209291906136d8565b6040516020818303038152906040525b915050919050565b60007f01ffc9a7000000000000000000000000000000000000000000000000000000007bffffffffffffffffffffffffffffffffffffffffffffffffffffffff1916827bffffffffffffffffffffffffffffffffffffffffffffffffffffffff1916149050919050565b600073ffffffffffffffffffffffffffffffffffffffff168273ffffffffffffffffffffffffffffffffffffffff16036123145760006040517f64a0ae9200000000000000000000000000000000000000000000000000000000815260040161230b91906128a2565b60405180910390fd5b6000612322838360006116d9565b9050600073ffffffffffffffffffffffffffffffffffffffff168173ffffffffffffffffffffffffffffffffffffffff16146123965760006040517f73c6ac6e00000000000000000000000000000000000000000000000000000000815260040161238d91906128a2565b60405180910390fd5b505050565b60008073ffffffffffffffffffffffffffffffffffffffff168373ffffffffffffffffffffffffffffffffffffffff161415801561245357508273ffffffffffffffffffffffffffffffffffffffff168473ffffffffffffffffffffffffffffffffffffffff16148061241457506124138484610f9e565b5b8061245257508273ffffffffffffffffffffffffffffffffffffffff1661243a83611581565b73ffffffffffffffffffffffffffffffffffffffff16145b5b90509392505050565b60606000600161246b8461252a565b01905060008167ffffffffffffffff81111561248a57612489612933565b5b6040519080825280601f01601f1916602001820160405280156124bc5781602001600182028036833780820191505090505b509050600082602001820190505b60011561251f578080600190039150507f3031323334353637383961626364656600000000000000000000000000000000600a86061a8153600a858161251357612512613725565b5b049450600085036124ca575b819350505050919050565b600080600090507a184f03e93ff9f4daa797ed6e38ed64bf6a1f0100000000000000008310612588577a184f03e93ff9f4daa797ed6e38ed64bf6a1f010000000000000000838161257e5761257d613725565b5b0492506040810190505b6d04ee2d6d415b85acef810000000083106125c5576d04ee2d6d415b85acef810000000083816125bb576125ba613725565b5b0492506020810190505b662386f26fc1000083106125f457662386f26fc1000083816125ea576125e9613725565b5b0492506010810190505b6305f5e100831061261d576305f5e100838161261357612612613725565b5b0492506008810190505b612710831061264257612710838161263857612637613725565b5b0492506004810190505b60648310612665576064838161265b5761265a613725565b5b0492506002810190505b600a8310612674576001810190505b80915050919050565b6000604051905090565b600080fd5b600080fd5b60007fffffffff0000000000000000000000000000000000000000000000000000000082169050919050565b6126c681612691565b81146126d157600080fd5b50565b6000813590506126e3816126bd565b92915050565b6000602082840312156126ff576126fe612687565b5b600061270d848285016126d4565b91505092915050565b60008115159050919050565b61272b81612716565b82525050565b60006020820190506127466000830184612722565b92915050565b600081519050919050565b600082825260208201905092915050565b60005b8381101561278657808201518184015260208101905061276b565b60008484015250505050565b6000601f19601f8301169050919050565b60006127ae8261274c565b6127b88185612757565b93506127c8818560208601612768565b6127d181612792565b840191505092915050565b600060208201905081810360008301526127f681846127a3565b905092915050565b6000819050919050565b612811816127fe565b811461281c57600080fd5b50565b60008135905061282e81612808565b92915050565b60006020828403121561284a57612849612687565b5b60006128588482850161281f565b91505092915050565b600073ffffffffffffffffffffffffffffffffffffffff82169050919050565b600061288c82612861565b9050919050565b61289c81612881565b82525050565b60006020820190506128b76000830184612893565b92915050565b6128c681612881565b81146128d157600080fd5b50565b6000813590506128e3816128bd565b92915050565b60008060408385031215612900576128ff612687565b5b600061290e858286016128d4565b925050602061291f8582860161281f565b9150509250929050565b600080fd5b600080fd5b7f4e487b7100000000000000000000000000000000000000000000000000000000600052604160045260246000fd5b61296b82612792565b810181811067ffffffffffffffff8211171561298a57612989612933565b5b80604052505050565b600061299d61267d565b90506129a98282612962565b919050565b600067ffffffffffffffff8211156129c9576129c8612933565b5b6129d282612792565b9050602081019050919050565b82818337600083830152505050565b6000612a016129fc846129ae565b612993565b905082815260208101848484011115612a1d57612a1c61292e565b5b612a288482856129df565b509392505050565b600082601f830112612a4557612a44612929565b5b8135612a558482602086016129ee565b91505092915050565b60008060408385031215612a7557612a74612687565b5b6000612a83858286016128d4565b925050602083013567ffffffffffffffff811115612aa457612aa361268c565b5b612ab085828601612a30565b9150509250929050565b600080600060608486031215612ad357612ad2612687565b5b6000612ae1868287016128d4565b9350506020612af2868287016128d4565b9250506040612b038682870161281f565b9150509250925092565b612b16816127fe565b82525050565b6000602082019050612b316000830184612b0d565b92915050565b600060208284031215612b4d57612b4c612687565b5b6000612b5b848285016128d4565b91505092915050565b6000608082019050612b796000830187612b0d565b612b866020830186612b0d565b612b936040830185612b0d565b612ba06060830184612722565b95945050505050565b612bb281612716565b8114612bbd57600080fd5b50565b600081359050612bcf81612ba9565b92915050565b60008060408385031215612bec57612beb612687565b5b6000612bfa858286016128d4565b9250506020612c0b85828601612bc0565b9150509250929050565b600067ffffffffffffffff821115612c3057612c2f612933565b5b612c3982612792565b9050602081019050919050565b6000612c59612c5484612c15565b612993565b905082815260208101848484011115612c7557612c7461292e565b5b612c808482856129df565b509392505050565b600082601f830112612c9d57612c9c612929565b5b8135612cad848260208601612c46565b91505092915050565b60008060008060808587031215612cd057612ccf612687565b5b6000612cde878288016128d4565b9450506020612cef878288016128d4565b9350506040612d008782880161281f565b925050606085013567ffffffffffffffff811115612d2157612d2061268c565b5b612d2d87828801612c88565b91505092959194509250565b60008060408385031215612d5057612d4f612687565b5b6000612d5e858286016128d4565b9250506020612d6f858286016128d4565b9150509250929050565b6000819050919050565b612d8c81612d79565b82525050565b6000602082019050612da76000830184612d83565b92915050565b7f4e487b7100000000000000000000000000000000000000000000000000000000600052602260045260246000fd5b60006002820490506001821680612df457607f821691505b602082108103612e0757612e06612dad565b5b50919050565b7f4e487b7100000000000000000000000000000000000000000000000000000000600052601160045260246000fd5b6000612e47826127fe565b91507fffffffffffffffffffffffffffffffffffffffffffffffffffffffffffffffff8203612e7957612e78612e0d565b5b600182019050919050565b600081905092915050565b7f697066733a2f2f00000000000000000000000000000000000000000000000000600082015250565b6000612ec5600783612e84565b9150612ed082612e8f565b600782019050919050565b6000612ee68261274c565b612ef08185612e84565b9350612f00818560208601612768565b80840191505092915050565b6000612f1782612eb8565b9150612f238284612edb565b915081905092915050565b6000606082019050612f436000830186612893565b612f506020830185612b0d565b612f5d6040830184612893565b949350505050565b7f556e766572696669656420646f63756d656e7473000000000000000000000000600082015250565b6000612f9b601483612757565b9150612fa682612f65565b602082019050919050565b60006020820190508181036000830152612fca81612f8e565b9050919050565b7f45786365656473206d6178696d756d206c6f616e000000000000000000000000600082015250565b6000613007601483612757565b915061301282612fd1565b602082019050919050565b6000602082019050818103600083015261303681612ffa565b9050919050565b7f496e73756666696369656e742066756e64730000000000000000000000000000600082015250565b6000613073601283612757565b915061307e8261303d565b602082019050919050565b600060208201905081810360008301526130a281613066565b9050919050565b7f506f6f722063726564697420686973746f727900000000000000000000000000600082015250565b60006130df601383612757565b91506130ea826130a9565b602082019050919050565b6000602082019050818103600083015261310e816130d2565b9050919050565b6000613120826127fe565b915061312b836127fe565b925082820190508082111561314357613142612e0d565b5b92915050565b7f4e6f20616374697665206c6f616e730000000000000000000000000000000000600082015250565b600061317f600f83612757565b915061318a82613149565b602082019050919050565b600060208201905081810360008301526131ae81613172565b9050919050565b60006131c0826127fe565b91506131cb836127fe565b92508282039050818111156131e3576131e2612e0d565b5b92915050565b7f4e487b7100000000000000000000000000000000000000000000000000000000600052603260045260246000fd5b7f4c6f616e20616c726561647920636c6f73656400000000000000000000000000600082015250565b600061324e601383612757565b915061325982613218565b602082019050919050565b6000602082019050818103600083015261327d81613241565b9050919050565b7f4f7665727061796d656e74206e6f7420616c6c6f776564000000000000000000600082015250565b60006132ba601783612757565b91506132c582613284565b602082019050919050565b600060208201905081810360008301526132e9816132ad565b9050919050565b60006132fb82612d79565b915061330683612d79565b92508282019050828112156000831216838212600084121516171561332e5761332d612e0d565b5b92915050565b600061333f82612d79565b915061334a83612d79565b925082820390508181126000841216828213600085121516171561337157613370612e0d565b5b92915050565b60008190508160005260206000209050919050565b60006020601f8301049050919050565b600082821b905092915050565b6000600883026133d97fffffffffffffffffffffffffffffffffffffffffffffffffffffffffffffffff8261339c565b6133e3868361339c565b95508019841693508086168417925050509392505050565b6000819050919050565b600061342061341b613416846127fe565b6133fb565b6127fe565b9050919050565b6000819050919050565b61343a83613405565b61344e61344682613427565b8484546133a9565b825550505050565b600090565b613463613456565b61346e818484613431565b505050565b5b818110156134925761348760008261345b565b600181019050613474565b5050565b601f8211156134d7576134a881613377565b6134b18461338c565b810160208510156134c0578190505b6134d46134cc8561338c565b830182613473565b50505b505050565b600082821c905092915050565b60006134fa600019846008026134dc565b1980831691505092915050565b600061351383836134e9565b9150826002028217905092915050565b61352c8261274c565b67ffffffffffffffff81111561354557613544612933565b5b61354f8254612ddc565b61355a828285613496565b600060209050601f83116001811461358d576000841561357b578287015190505b6135858582613507565b8655506135ed565b601f19841661359b86613377565b60005b828110156135c35784890151825560018201915060208501945060208101905061359e565b868310156135e057848901516135dc601f8916826134e9565b8355505b6001600288020188555050505b505050505050565b600081519050919050565b600082825260208201905092915050565b600061361c826135f5565b6136268185613600565b9350613636818560208601612768565b61363f81612792565b840191505092915050565b600060808201905061365f6000830187612893565b61366c6020830186612893565b6136796040830185612b0d565b818103606083015261368b8184613611565b905095945050505050565b6000815190506136a5816126bd565b92915050565b6000602082840312156136c1576136c0612687565b5b60006136cf84828501613696565b91505092915050565b60006136e48285612edb565b91506136f08284612edb565b91508190509392505050565b60006040820190506137116000830185612893565b61371e6020830184612b0d565b9392505050565b7f4e487b7100000000000000000000000000000000000000000000000000000000600052601260045260246000fdfea26469706673582212207f9bbda8b423cb7f03c72e9fbb412d3aad4b5f1eb82809ee6b9e9742fb3ec77e64736f6c634300081c0033",
  "linkReferences": {},
  "deployedLinkReferences": {}
}